{
  "contractName": "TruthPlatform",
  "abi": [
    {
      "anonymous": false,
      "inputs": [
        {
          "indexed": false,
          "internalType": "uint256",
          "name": "id",
          "type": "uint256"
        },
        {
          "indexed": false,
          "internalType": "address",
          "name": "author",
          "type": "address"
        },
        {
          "indexed": false,
          "internalType": "string",
          "name": "content",
          "type": "string"
        },
        {
          "indexed": false,
          "internalType": "uint256",
          "name": "timestamp",
          "type": "uint256"
        }
      ],
      "name": "PostCreated",
      "type": "event"
    },
    {
      "inputs": [],
      "name": "nextPostId",
      "outputs": [
        {
          "internalType": "uint256",
          "name": "",
          "type": "uint256"
        }
      ],
      "stateMutability": "view",
      "type": "function",
      "constant": true
    },
    {
      "inputs": [
        {
          "internalType": "uint256",
          "name": "",
          "type": "uint256"
        }
      ],
      "name": "posts",
      "outputs": [
        {
          "internalType": "uint256",
          "name": "id",
          "type": "uint256"
        },
        {
          "internalType": "address",
          "name": "author",
          "type": "address"
        },
        {
          "internalType": "string",
          "name": "content",
          "type": "string"
        },
        {
          "internalType": "uint256",
          "name": "timestamp",
          "type": "uint256"
        }
      ],
      "stateMutability": "view",
      "type": "function",
      "constant": true
    },
    {
      "inputs": [
        {
          "internalType": "string",
          "name": "content",
          "type": "string"
        }
      ],
      "name": "createPost",
      "outputs": [],
      "stateMutability": "nonpayable",
      "type": "function"
    },
    {
      "inputs": [
        {
          "internalType": "uint256",
          "name": "id",
          "type": "uint256"
        }
      ],
      "name": "getPost",
      "outputs": [
        {
          "components": [
            {
              "internalType": "uint256",
              "name": "id",
              "type": "uint256"
            },
            {
              "internalType": "address",
              "name": "author",
              "type": "address"
            },
            {
              "internalType": "string",
              "name": "content",
              "type": "string"
            },
            {
              "internalType": "uint256",
              "name": "timestamp",
              "type": "uint256"
            }
          ],
          "internalType": "struct TruthPlatform.Post",
          "name": "",
          "type": "tuple"
        }
      ],
      "stateMutability": "view",
      "type": "function",
      "constant": true
    },
    {
      "inputs": [],
      "name": "getPosts",
      "outputs": [
        {
          "components": [
            {
              "internalType": "uint256",
              "name": "id",
              "type": "uint256"
            },
            {
              "internalType": "address",
              "name": "author",
              "type": "address"
            },
            {
              "internalType": "string",
              "name": "content",
              "type": "string"
            },
            {
              "internalType": "uint256",
              "name": "timestamp",
              "type": "uint256"
            }
          ],
          "internalType": "struct TruthPlatform.Post[]",
          "name": "",
          "type": "tuple[]"
        }
      ],
      "stateMutability": "view",
      "type": "function",
      "constant": true
    }
  ],
  "bytecode": "0x608060405234801561001057600080fd5b50610788806100206000396000f3fe608060405234801561001057600080fd5b50600436106100575760003560e01c80630b1e7f831461005c57806340731c241461008857806341f3004a146100a85780635c09bd98146100bd578063c7303c61146100d4575b600080fd5b61006f61006a3660046104b2565b6100e9565b60405161007f9493929190610518565b60405180910390f35b61009b6100963660046104b2565b6101b8565b60405161007f9190610598565b6100b0610340565b60405161007f91906105b2565b6100c660015481565b60405190815260200161007f565b6100e76100e236600461062a565b61045b565b005b600081815481106100f957600080fd5b60009182526020909120600490910201805460018201546002830180549294506001600160a01b03909116929161012f906106db565b80601f016020809104026020016040519081016040528092919081815260200182805461015b906106db565b80156101a85780601f1061017d576101008083540402835291602001916101a8565b820191906000526020600020905b81548152906001019060200180831161018b57829003601f168201915b5050505050908060030154905084565b6101ec60405180608001604052806000815260200160006001600160a01b0316815260200160608152602001600081525090565b60015482106102385760405162461bcd60e51b81526020600482015260146024820152732837b9ba103237b2b9903737ba1032bc34b9ba1760611b604482015260640160405180910390fd5b6000828154811061024b5761024b610715565b9060005260206000209060040201604051806080016040529081600082015481526020016001820160009054906101000a90046001600160a01b03166001600160a01b03166001600160a01b031681526020016002820180546102ad906106db565b80601f01602080910402602001604051908101604052809291908181526020018280546102d9906106db565b80156103265780601f106102fb57610100808354040283529160200191610326565b820191906000526020600020905b81548152906001019060200180831161030957829003601f168201915b505050505081526020016003820154815250509050919050565b60606000805480602002602001604051908101604052809291908181526020016000905b8282101561045257600084815260209081902060408051608081018252600486029092018054835260018101546001600160a01b031693830193909352600283018054929392918401916103b7906106db565b80601f01602080910402602001604051908101604052809291908181526020018280546103e3906106db565b80156104305780601f1061040557610100808354040283529160200191610430565b820191906000526020600020905b81548152906001019060200180831161041357829003601f168201915b5050505050815260200160038201548152505081526020019060010190610364565b50505050905090565b7f285db98a4632176385795ddf0d2b67cef1a21f47eb2f5d06f786ab6b5147e2006001543383426040516104929493929190610518565b60405180910390a1600180549060006104aa8361072b565b919050555050565b6000602082840312156104c457600080fd5b5035919050565b6000815180845260005b818110156104f1576020818501810151868301820152016104d5565b81811115610503576000602083870101525b50601f01601f19169290920160200192915050565b8481526001600160a01b0384166020820152608060408201819052600090610542908301856104cb565b905082606083015295945050505050565b8051825260018060a01b036020820151166020830152600060408201516080604085015261058460808501826104cb565b606093840151949093019390935250919050565b6020815260006105ab6020830184610553565b9392505050565b6000602080830181845280855180835260408601915060408160051b870101925083870160005b8281101561060757603f198886030184526105f5858351610553565b945092850192908501906001016105d9565b5092979650505050505050565b634e487b7160e01b600052604160045260246000fd5b60006020828403121561063c57600080fd5b813567ffffffffffffffff8082111561065457600080fd5b818401915084601f83011261066857600080fd5b81358181111561067a5761067a610614565b604051601f8201601f19908116603f011681019083821181831017156106a2576106a2610614565b816040528281528760208487010111156106bb57600080fd5b826020860160208301376000928101602001929092525095945050505050565b600181811c908216806106ef57607f821691505b60208210810361070f57634e487b7160e01b600052602260045260246000fd5b50919050565b634e487b7160e01b600052603260045260246000fd5b60006001820161074b57634e487b7160e01b600052601160045260246000fd5b506001019056fea2646970667358221220caca5cb33f63489fdd6faea211553856a514a41675685a15a95abb843e427f1164736f6c634300080d0033",
  "immutableReferences": {},
  "source": "// SPDX-License-Identifier: MIT\r\npragma solidity ^0.8.0;\r\n\r\n// contract TruthPlatform {\r\n//     uint256 public nextPostId;\r\n// }\r\n\r\ncontract TruthPlatform {\r\n    struct Post {\r\n        uint256 id;\r\n        address author;\r\n        string content;\r\n        uint256 timestamp;\r\n    }\r\n\r\n    Post[] public posts;\r\n//     // mapping(uint256 => Post) public posts;\r\n    uint256 public nextPostId;\r\n\r\n\r\n    event PostCreated(uint256 id, address author, string content, uint256 timestamp);\r\n\r\n    function createPost(string memory content) public {\r\n        // posts.push(Post(nextPostId, msg.sender, content, block.timestamp));\r\n    //     posts[nextPostId] = Post(nextPostId, msg.sender, content, block.timestamp);\r\n        emit PostCreated(nextPostId, msg.sender, content, block.timestamp);\r\n        nextPostId++;\r\n    }\r\n\r\n    function getPost(uint256 id) public view returns (Post memory) {\r\n        require(id < nextPostId, \"Post does not exist.\");\r\n        return posts[id];\r\n    }\r\n\r\n    function getPosts() public view returns (Post[] memory) {\r\n        return posts;\r\n    }\r\n\r\n    // function getPostCount() public view returns(uint256){\r\n    //     return nextPostId;\r\n    // }\r\n}\r\n",
  "sourcePath": "C:\\Users\\ivanb\\Desktop\\PYTHON2\\solidity-project\\contracts\\TruthPlatform.sol",
  "compiler": {
    "name": "solc",
    "version": "0.8.13+commit.abaa5c0e.Emscripten.clang"
  },
  "schemaVersion": "3.4.16",
  "updatedAt": "2024-09-10T07:27:02.574Z",
  "networkType": "ethereum",
  "devdoc": {
    "kind": "dev",
    "methods": {},
    "version": 1
  },
  "userdoc": {
    "kind": "user",
    "methods": {},
    "version": 1
  }
}